:100000001BC03FC03EC03DC06FC63BC03AC039C0F8
:1000100038C037C036C035C066C433C032C00037C0
:10002000003800360101010101010102040810201D
:100030000103000000009C0511241FBECFE5D1E0A4
:10004000DEBFCDBF10E0A0E6B0E0EAEFFFE002C007
:1000500005900D92A236B107D9F710E0A2E6B0E004
:1000600001C01D92A239B107E1F710E0C8E3D0E06A
:1000700003C02297FE018ED7C633D107D1F736D7FA
:10008000BAC7BECF379A8FE887B962E070E080E0E8
:1000900090E09AD6369A3699FECF24B135B137988A
:1000A000932F80E030E0282B392BC9010895EADF37
:1000B0002091670030916800409165005091660082
:1000C000241B350B280F391FC90108956AE02DD76D
:1000D0008295807F890F0895CF92DF92FF920F93D0
:1000E0001F93DF93CF9300D0CDB7DEB7182FF62E36
:1000F00087E8C82E80E0D82EC60161E529834A83AF
:10010000DDD4C60160E0E0D4C60160E0DDD4C60104
:1001100060E0DAD480E0DADF682FC601D5D4802F22
:10012000D5DF682FC601D0D42981822FCFDF682F79
:10013000C601CAD44A81842FC9DF682FC601C4D43E
:1001400081E0C4DF682FC601BFD48F2D8F71BEDF61
:10015000682FC601B9D4812FB9DF682FC601B4D486
:10016000C601BED40F900F90CF91DF911F910F91D8
:10017000FF90DF90CF900895982F82958F706AE05E
:10018000B9D69F70890F08950F931F93CF93DF9374
:10019000C7E8D0E0CE0161E591D4CE0163E094D40C
:1001A000CE019ED4CE0161E546E0A8D4CE01B9D4FB
:1001B0008F77E2DF09E610E08093690010926A0011
:1001C000CE01AFD48F73D8DF80936B00F801138218
:1001D000CE01A7D48F73D0DF80936D00F801158214
:1001E000CE019FD4CE019DD48F71C6DF80936F0066
:1001F000F8011782CE0195D4BFDF80937100F8011A
:100200001186DF91CF911F910F9108950F931F9346
:10021000CF93DF93162F042FE901882319F081E093
:1002200061E002C081E060E02FD6112319F084E084
:1002300061E002C084E060E027D6002319F083E08B
:1002400061E002C083E060E01FD6BE01882777FD31
:100250008095982FB9D5DF91CF911F910F91089577
:10026000DF92EF92FF920F931F93CF93DF93F82EBD
:10027000843180F56AE059D6E82E892F65E055D69D
:10028000D82E092F10E080E06D2D4E2D28EE33E0A2
:10029000BDDFC0E0D0E00DC081E06D2D4E2D24EF1C
:1002A00031E0B4DF80E06D2D4E2D24EF31E0AEDF84
:1002B0002196C017D10784F3FF2031F481E061E07B
:1002C00041E024EF31E0A2DF80E060E040E024EF95
:1002D00031E09CDFDF91CF911F910F91FF90EF9064
:1002E000DF900895CF93DF93C0E8D0E083E790E0FC
:1002F000BE01DBD38F3F79F0C539D10561F083E7CB
:1003000090E0BE01D2D3ACDF68EE73E080E090E015
:100310005BD52196EBCFDF91CF9108951F93C7DE78
:100320006AE070E00ED6182F862F9ADF68EE73E031
:1003300080E090E049D5812F93DF1F9108950F93BE
:100340001F93CF93DF9320DF80916D0090916E001B
:10035000CAE0D0E0BE01F5D5862F82DF68EE73E0FB
:1003600080E090E031D580916D0090916E00BE01EB
:10037000E8D576DF68EE73E080E090E025D58091E7
:100380006F006EDF68EE73E080E090E01DD5809135
:1003900071009091720004E610E0B801D2D5BE0160
:1003A000D0D5862F5DDF68EE73E080E090E00CD55D
:1003B0008091710090917200B801C3D5BE01C1D582
:1003C0004FDFDF91CF911F910F9108950F931F93EE
:1003D000CF93DF93D9DE80916B0090916C006CE03D
:1003E00070E0AFD53DDF68EE73E080E090E0ECD4E4
:1003F000CBE6D0E09A918A910AE010E0B801A1D54D
:10040000862F2EDF68EE73E080E090E0DDD48881F7
:100410009981B80196D524DFDF91CF911F910F917B
:10042000089580E060E040E020E030E0EFDE81E031
:1004300060E040E028EE33E0E9DE80E060E040E0AC
:1004400020E030E0E3DE80E061E040E028EE33E0F1
:10045000DDDE80E060E040E020E030E0D7DE80E0FC
:1004600060E041E028EE33E0D1DE80E060E040E093
:1004700020E030E0CBDE089580E060E040E020E066
:1004800030E0C4DE80E060E041E024E630E0BEDE43
:1004900080E061E040E024E630E0B8DE81E060E04A
:1004A00040E028EC30E0B2DE80E061E040E024E6AD
:1004B00030E0ACDE80E060E041E028EC30E0A6DE39
:1004C00080E061E040E024E630E0A0DE81E060E032
:1004D00040E024E630E09ADE80E060E040E020E0AA
:1004E00030E094DE68EE73E080E090E06DD4089533
:1004F000CF93DF9381E060E040E020ED37E086DEDF
:10050000C6E0D0E080E061E040E024EF31E07EDE54
:1005100080E060E040E024EF31E078DE219791F761
:1005200080E060E041E020E737E170DE80E061E0FC
:1005300040E028EB3BE06ADE81E060E040E020ED57
:1005400037E064DEDF91CF91089581E060E040E024
:1005500020ED37E05BDE81E061E040E020ED37E058
:1005600055DE80E060E041E028E53BE14FDE80E0E1
:1005700061E040E028EB3BE049DE81E060E040E004
:1005800020ED37E043DE089581E060E05CD484E054
:1005900060E059D483E060E056D480E060E053D45A
:1005A00082E060E050D4089580E060E040E020E028
:1005B00030E02CDEE9DF089581E061E044D484E09E
:1005C00061E041D483E061E03ED480E061E03BD46F
:1005D00082E061E038D40895BD98C59A80E096B372
:1005E00095FD03C08F5F8031D1F7C598BD9A0895FE
:1005F000F3DF482F50E081E02091620030916300EA
:10060000241735070CF080E008950F931F93DF93B4
:10061000CF9300D0CDB7DEB7182F02E0812F4A83E9
:1006200069831EDEE5DF4A816981882351F0141752
:1006300010F41F5FF3CF002319F00150162FEECFF7
:10064000162F812F0F900F90CF91DF911F910F9157
:100650000895CF92DF92FF920F931F93DF93CF9372
:100660000F92CDB7DEB790DD07DF80916B009091E0
:100670006C006CE070E065D460E04BE0C6DF89831D
:10068000FBDE9BE6C92E90E0D92EF6019291829175
:100690006F010AE010E0B80154D4862F60E045E015
:1006A000B4DF6AE027D4F82EE7DEF601808191817D
:1006B000B80147D460E049E0A8DF0F2D080FF6012C
:1006C000808566814481298107DD0F90CF91DF917C
:1006D0001F910F91FF90DF90CF900895AF92BF923E
:1006E000CF92DF92EF92FF920F931F93DF93CF93FE
:1006F0000F92CDB7DEB748DDBFDE80916B009091E1
:100700006C006CE070E01DD4862F60E041E07DDF7E
:10071000B3DE80916D0090916E002AE0A22EB12C84
:10072000B5010FD4862F60E043E06FDF8983A4DE3C
:1007300089816AE0DFD3D82E80916D0090916E00A0
:10074000B501FFD360E049E060DFE82E95DE8091DF
:100750006F0061E04CE059DFF82E8EDE8091710071
:100760009091720004E610E0B801EBD3B501E9D333
:10077000862F60E049E049DFC82E7EDE809171005F
:1007800090917200B801DDD3B501DBD360E049E0A0
:100790003CDFB82E71DE2091710030917200C901EA
:1007A000B801CFD3862F64E6A5D3B80E8C2D6AE0AE
:1007B000A1D34D2D4E0D8B0D6F2D20916B0000910F
:1007C00069008ADC0F90CF91DF911F910F91FF900C
:1007D000EF90DF90CF90BF90AF9008950F931F934D
:1007E000DF93CF930F92CDB7DEB700E810E00FC0D4
:1007F00083E790E0B8014FEF5BD11DC083E790E045
:10080000B80156D10F5F1F4F05391105A1F034DE35
:1008100083E790E0B80149D18BE060E04BE0F5DE82
:10082000482F68EE73E080E090E04983CDD24981A3
:100830004B3021F7DDCF0F90CF91DF911F910F91BA
:100840000895EF92FF92CF93DF9316DE80E060E091
:1008500049E0DBDE90E064E670E055D3EC010CDEAD
:1008600080E060E049E0D1DE90E06AE070E04BD3E8
:10087000C80FD91F01DE80E060E049E0C6DEC80F86
:10088000D11DCE01DF91CF91FF90EF90089585B7F4
:10089000877E806185BF85B7806285BF85B78062AE
:1008A00085BF889585B78F7D85BF85B78F7D85BFCF
:1008B0000895282F392FC9018A30910514F089E055
:1008C00090E0282F2770883091050CF0206220617D
:1008D00084B7877F84BF81B5886181BD21BD81B523
:1008E000806481BD08951F920F920FB60F9211245C
:1008F0008F9381E0809360008F910F900FBE0F90D7
:100900001F90189584E690E060E070E045E050E0CC
:100910005CD3089510926400B5DB909366008093D9
:10092000650084E190E09093680080936700A4DD07
:10093000E9DF08950F931F93CF93DF9337983CDE41
:1009400070DD84E690E060E070E045E050E026D3A2
:10095000809164008F3F09F4DDDFC0E0D0E08C2F90
:100960007FDC2196CB30D105D1F71EDEC8E0D0E088
:1009700000916200109163002FDE080F111D10938B
:1009800063000093620064E170E080E090E01CD2BC
:10099000219771F78091620090916300049668E05E
:1009A00070E0CFD2709363006093620005DE80E058
:1009B00057DC87E890E080D08CE06AE041E02CE0F2
:1009C00000E08ADB4DDC80E04BDCEEDD88E090E08F
:1009D00070DFDF91CF911F910F91089532DF9093D7
:1009E00068008093670048DD8DDF089568EE73E04E
:1009F00080E090E0E9D146DB90936600809365004B
:100A00003BDD80DF089580916000813009F04CC0AB
:100A100010926000EDDD882309F445C0CDDD81E052
:100A200061E047E0F2DD8430B1F0853038F48230A7
:100A300071F0833070F48130A9F507C0863079F009
:100A4000863058F0873071F50CC07FDD2BC050DD4B
:100A500029C0BCDC27C073DC25C060DC23C042DCBD
:100A600021C0EFDE21E081349207E1F4DADC81E09D
:100A700061E045E0CADD833081F0843028F48130C4
:100A800041F0823079F407C0843049F0853051F468
:100A900008C0DFDD07C022DE05C0A8DF03C09EDF7F
:100AA00001C09CDE81DDF3DE0895CB0186D208957E
:100AB000CB01642F92D2089540D008951092840003
:100AC000660F609374000895E0918400E03138F47B
:100AD000EF5FE0938400F0E0EC58FF4F60830895EF
:100AE000609184006F5F84E790E0EBD01092840007
:100AF000882311F42DD0089580E008951092850088
:100B000040938600660F616060937400642F6F5F8E
:100B100084E790E0D6D0882311F41AD0089580E0BD
:100B20000895809185008F5F80938500E4E7F0E071
:100B3000E80FF11D808108950895C09AC29ABA9A6B
:100B4000B89A8FEF8FB98AE28DB980EF8EB9089588
:100B50008091880008958EB98BE29DE09A95F1F717
:100B600000008DB9B29BFECF9AE09A95F1F700C0D4
:100B70008DB9769BF2CF8DE08A95F1F700008FB1A9
:100B80009FEF9FB9B89A0895C29AC29BFECF8DE09D
:100B90008A95F1F70000C0988AE08A95F1F700C0C5
:100BA000C298C09A779905C083E08093880080E05E
:100BB000089581E00895C098C29AB29BFECF8AE062
:100BC0008A95F1F700C0C09A8DE08A95F1F7000090
:100BD000759905C084E08093880080E0089581E0E5
:100BE0000895CF92DF92EF92FF920F931F93CF93CE
:100BF000DF93EC01E62E80918800982F916090930E
:100C00008800988190FD03C0836080938800BCDFDA
:100C1000882309F44BC0FE2C8E01CC24CA94DD2419
:100C2000D39480918800837049F1C298F801808143
:100C30008FB980EF90DFB8988EEF8DDF90918800AC
:100C400080FF06C090FF02C081E00FC082E00DC0AF
:100C5000892F8570843061F4888181608883D09287
:100C6000880092DF8823C9F48AE0809388001EC040
:100C70000F5F1F4F9E7F9093880011C0B89880EF40
:100C80006ADFF80181938F01FF2DF13011F4CFB8A5
:100C900001C01FB88EEF5FDF02C0FE2C8E01FA94F8
:100CA00009F0BFCF88DF91E0882309F490E0892F15
:100CB000DF91CF911F910F91FF90EF90DF90CF9038
:100CC0000895109288008DDF089583B7887F83BFD1
:100CD0008AB58C7F81608ABD83B7877F83BF83B7E6
:100CE000887F836083BF08951F920F920FB60F9283
:100CF00011242F933F938F939F93AF93BF93809132
:100D00008D0090918E00A0918F00B0919000309155
:100D10009100232F2A5F2D3728F02D570396A11D10
:100D2000B11D03C00296A11DB11D209391008093B7
:100D30008D0090938E00A0938F00B09390008091CF
:100D4000890090918A00A0918B00B0918C0001964F
:100D5000A11DB11D8093890090938A00A0938B0000
:100D6000B0938C00BF91AF919F918F913F912F9144
:100D70000F900FBE0F901F9018959FB7F894209179
:100D8000890030918A0040918B0050918C008FB582
:100D900008B602FE06C08F3F21F02F5F3F4F4F4F36
:100DA0005F4F9FBF542F432F322F2227280F311D13
:100DB000411D511D83E0220F331F441F551F8A958B
:100DC000D1F7B901CA010895EF92FF920F931F93D3
:100DD000CF93DF937B018C01D0DFEB010EC0CDDF21
:100DE0006C1B7D0B83E0683E780738F00894E108BF
:100DF000F10801091109C851DC4FE114F1040105A2
:100E0000110569F7DF91CF911F910F91FF90EF903E
:100E10000895789480B7806880BF80B7806480BF71
:100E20008CB580648CBD8FEF8DBD80B7807F87606F
:100E300080BF89B7846089BF48DF86B1887F8660BC
:100E400086B9379A089590E0FC01E65DFF4F249142
:100E5000FC01EC5DFF4FE491EE23A9F0F0E0E25ECF
:100E6000FF4FA491B0E0662341F49FB7F8948C91B2
:100E7000209582238C939FBF08959FB7F8948C91FF
:100E8000822B8C939FBF0895282F30E0F901E65DF7
:100E9000FF4F9491F901EC5DFF4FE491EE2329F1AE
:100EA000882319F48AB58F7304C0813021F48AB580
:100EB0008F7C8ABD05C0843019F48CB58F7C8CBDC5
:100EC000F0E0E05EFF4FA491B0E0662341F42FB75D
:100ED000F8948C91909589238C932FBF08952FB708
:100EE000F8948C91892B8C932FBF089592DF22DD8B
:100EF0008ADDFECF002480FD060E660F11F0869578
:100F0000D1F7802D08955527002480FF02C0060EDA
:100F1000571F660F771F6115710521F0969587950C
:100F2000009799F7952F802D0895991B79E004C0BB
:100F3000991F961708F0961B881F7A95C9F7809518
:100F4000089597FB092E07260AD077FD04D00CD010
:100F500006D000201AF4709561957F4F0895F6F73A
:100F6000909581959F4F0895AA1BBB1B51E107C027
:100F7000AA1FBB1FA617B70710F0A61BB70B881F29
:100F8000991F5A95A9F780959095BC01CD010895B8
:100F9000EE0FFF1F0590F491E02D0994DC01862FE0
:100FA000E82FE199FECF1FBA05C0EEBBE09AE395AA
:100FB0000DB20D924150C8F70895E199FECF1FBAC6
:100FC0008EBBE09A99278DB30895DC01862F02C06D
:100FD0002D9104D04150E0F70895262FE199FECFDE
:100FE0001CBA1FBA8EBB2DBB0FB6F894E29AE19AD9
:0A0FF0000FBE01960895F894FFCF9C
:020FFA000100F4
:00000001FF
